:100000000C9456000C946D000C946D000C946D00D3
:100010000C946D000C946D000C946D000C946D00AC
:100020000C946D000C946D000C946D000C946D009C
:100030000C946D000C946D000C946D000C946D008C
:100040000C946D000C946D000C946D000C946D007C
:100050000C946D000C946D000C946D000C946D006C
:100060000C946D000C946D000C946D000C946D005C
:100070000C946D000C946D000C946D000C946D004C
:100080000C946D000C946D000C946D00CF00D200A8
:10009000D200D500D500D800D800DB00DB00DB00A3
:1000A000DE00DE00DE00E100E100E10011241FBE01
:1000B000CFEFD0E4DEBFCDBF11E0A0E0B1E0EEEEC7
:1000C000F1E000E00BBF02C007900D92AE30B10727
:1000D000D9F70E9498000C94F5000C940000CF937F
:1000E000DF9300D01F92CDB7DEB789837B836A830D
:1000F00089818A3031F48A819B81BC018DE00E9424
:100100006F0080EC90E0FC018081882F90E080728D
:100110009927892BB1F386EC90E02981FC0120839B
:1001200080E090E00F900F900F90DF91CF910895B5
:10013000CF93DF9300D01F92CDB7DEB781E290E07E
:10014000FC01108282E290E02FEFFC01208384E228
:1001500090E02FEFFC01208385E290E0FC0110820B
:100160001A82198280E290E0FC0180818A838A8170
:100170008F708B838B81882F90E0092E000CAA0B47
:10018000BB0B40E050E02FE030E0841B950B2817BC
:100190003907C8F08A5B9F4FFC010C94EC0080E4A7
:1001A000898314C080E6898311C080E789830EC0EB
:1001B00088E389830BC08CE3898308C08EE389833D
:1001C00005C08FE389838FE38983000085E290E097
:1001D0002981FC012083C6CFEE0FFF1F0024001CE5
:0E01E0000BBE0790F691E02D0994F894FFCF26
:0E01EE0000000002000000006F000000000092
:00000001FF
